:020000040000fa
:080000000002040000000000f2
:020000040000fa
:04000800920300005f
:020000040000fa
:04000c00920300005b
:020000040000fa
:040010009203000057
:020000040000fa
:040014009203000053
:020000040000fa
:04001800920300004f
:020000040000fa
:04001c00920300004b
:020000040000fa
:040020009203000047
:020000040000fa
:040024009203000043
:020000040000fa
:04002800920300003f
:020000040000fa
:04002c00920300003b
:020000040000fa
:040030009203000037
:020000040000fa
:040034004e03000077
:020000040000fa
:04003800920300002f
:020000040000fa
:04003c00920300002b
:020000040000fa
:040040009203000027
:020000040000fa
:040044009203000023
:020000040000fa
:04004800fa020000b8
:020000040000fa
:04004c00920300001b
:020000040000fa
:040050009203000017
:020000040000fa
:040054009203000013
:020000040000fa
:04005800920300000f
:020000040000fa
:04005c006e0300002f
:020000040000fa
:040060009203000007
:020000040000fa
:040064009203000003
:020000040000fa
:0400680092030000ff
:020000040000fa
:04006c0092030000fb
:020000040000fa
:0400700092030000f7
:020000040000fa
:0400740092030000f3
:020000040000fa
:0400780092030000ef
:020000040000fa
:04007c0092030000eb
:020000040000fa
:0400800092030000e7
:020000040000fa
:0400840092030000e3
:020000040000fa
:0400880092030000df
:020000040000fa
:04008c0092030000db
:020000040000fa
:0400900092030000d7
:020000040000fa
:040094002403000041
:020000040000fa
:0400980092030000cf
:020000040000fa
:04009c0092030000cb
:020000040000fa
:0400a00092030000c7
:020000040000fa
:0400a40092030000c3
:020000040000fa
:0400a80092030000bf
:020000040000fa
:0400ac0092030000bb
:020000040000fa
:0400b00092030000b7
:020000040000fa
:0400b40092030000b3
:020000040000fa
:0400b80092030000af
:020000040000fa
:0400bc0092030000ab
:020000040000fa
:0400c00092030000a7
:020000040000fa
:0400c40092030000a3
:020000040000fa
:0400c800920300009f
:020000040000fa
:0400cc00920300009b
:020000040000fa
:0400d0009203000097
:020000040000fa
:0400d4009203000093
:020000040000fa
:0400d800920300008f
:020000040000fa
:0400dc00920300008b
:020000040000fa
:0400e0009203000087
:020000040000fa
:0400e4009203000083
:020000040000fa
:0400e800920300007f
:020000040000fa
:0400ec00920300007b
:020000040000fa
:0400f0009203000077
:020000040000fa
:0400f4009203000073
:020000040000fa
:0400f800920300006f
:020000040000fa
:0400fc00920300006b
:020000040000fa
:040100009203000066
:020000040000fa
:040104009203000062
:020000040000fa
:04010800920300005e
:020000040000fa
:04010c00920300005a
:020000040000fa
:040110009203000056
:020000040000fa
:040114009203000052
:020000040000fa
:04011800920300004e
:020000040000fa
:04011c00920300004a
:020000040000fa
:040120009203000046
:020000040000fa
:040124009203000042
:020000040000fa
:04012800920300003e
:020000040000fa
:04012c00920300003a
:020000040000fa
:040130009203000036
:020000040000fa
:040134009203000032
:020000040000fa
:04013800920300002e
:020000040000fa
:04013c00920300002a
:020000040000fa
:040140009203000026
:020000040000fa
:040144009203000022
:020000040000fa
:04014800920300001e
:020000040000fa
:04014c00920300001a
:020000040000fa
:040150009203000016
:020000040000fa
:040154009203000012
:020000040000fa
:04015800920300000e
:020000040000fa
:04015c00920300000a
:020000040000fa
:040160009203000006
:020000040000fa
:040164009203000002
:020000040000fa
:0401680092030000fe
:020000040000fa
:04016c0092030000fa
:020000040000fa
:0401700092030000f6
:020000040000fa
:0401740092030000f2
:020000040000fa
:0401780092030000ee
:020000040000fa
:04017c0092030000ea
:020000040000fa
:0401800092030000e6
:020000040000fa
:0401840092030000e2
:020000040000fa
:0401880092030000de
:020000040000fa
:04018c0092030000da
:020000040000fa
:0401900092030000d6
:020000040000fa
:0401940092030000d2
:020000040000fa
:0401980092030000ce
:020000040000fa
:04019c0092030000ca
:020000040000fa
:0401a00092030000c6
:020000040000fa
:0401a40092030000c2
:020000040000fa
:0401a80092030000be
:020000040000fa
:0401ac0092030000ba
:020000040000fa
:0401b00092030000b6
:020000040000fa
:0401b40092030000b2
:020000040000fa
:0401b80092030000ae
:020000040000fa
:0401bc0092030000aa
:020000040000fa
:0401c00092030000a6
:020000040000fa
:0401c40092030000a2
:020000040000fa
:0401c800920300009e
:020000040000fa
:0401cc00920300009a
:020000040000fa
:0401d0009203000096
:020000040000fa
:0401d4009203000092
:020000040000fa
:0401d800920300008e
:020000040000fa
:0401dc00920300008a
:020000040000fa
:0401e0009203000086
:020000040000fa
:0401e4009203000082
:020000040000fa
:0401e800920300007e
:020000040000fa
:0401ec00920300007a
:020000040000fa
:0401f0009203000076
:020000040000fa
:0401f4009203000072
:020000040000fa
:0401f800920300006e
:020000040000fa
:0401fc00920300006a
:020000040000fa
:040200009203000065
:020000040000fa
:040204009203000061
:020000040000fa
:04020800920300005d
:020000040000fa
:04020c009203000059
:020000040000fa
:040210009203000055
:020000040000fa
:040214009203000051
:020000040000fa
:04021800920300004d
:020000040000fa
:04021c009203000049
:020000040000fa
:040220009203000045
:020000040000fa
:040224009203000041
:020000040000fa
:04022800920300003d
:020000040000fa
:04022c009203000039
:020000040000fa
:040230009203000035
:020000040000fa
:040234009203000031
:020000040000fa
:04023800920300002d
:020000040000fa
:04023c009203000029
:020000040000fa
:040240009203000025
:020000040000fa
:040244009203000021
:020000040000fa
:04024800920300001d
:020000040000fa
:04024c009203000019
:020000040000fa
:040250009203000015
:020000040000fa
:040254009203000011
:020000040000fa
:04025800920300000d
:020000040000fa
:04025c009203000009
:020000040000fa
:040260009203000005
:020000040000fa
:040264009203000001
:020000040000fa
:0402680092030000fd
:020000040000fa
:04026c0092030000f9
:020000040000fa
:0402700092030000f5
:020000040000fa
:0402740092030000f1
:020000040000fa
:0402780092030000ed
:020000040000fa
:04027c0092030000e9
:020000040000fa
:0402800092030000e5
:020000040000fa
:10040000af0421000eff2c000e0188000000000048
:10041000000020000000e000020032000001200087
:100420002002880014000700c00007000000e00060
:1004300003003a00002821000100200002003700dc
:100440000000200001002000810f70000100320038
:100450000f000700000020000000e0000200320052
:100460000000020000000000fe0602000000000084
:100470000040da000000fe00200020000000e00044
:1004800002003200100020009001880000000600e9
:10049000a1028800800478000000eb001f003700f4
:1004a000e284440054a0b4009905ba00e2844400f8
:1004b00054a0b4009906ba00e284440054a0b400e9
:1004c0000006eb00476fde00fd07b200ae018800ba
:1004d000636ce10003003a000ad801000000eb0061
:1004e0000e003700606ce10008003a00004deb00a0
:1004f0000a05e800020039003420ec000af0a000f0
:100500008b05e900f9ff3e00040037006168e10057
:10051000010032000086eb000b00070019c7ba008b
:100520000e04e0001905ba0003003a000a00e000da
:10053000dbff3a0000000600fe07b200ae028800b2
:100540008a047800f5ff37000cd0a300e20f4d00bd
:100550001c00390089027800354dba000a05e80010
:10056000020039003420ec000af0a0008b05e900fd
:100570000f003200254dba000a05e80002003900dc
:100580003420ec000af0a0008b05e90008003200de
:100590000c00e0000600320015cdba000a05e800a4
:1005a000020039003420ec000af0a0008b05e900bd
:1005b0008984e80054a0b4000b00e000e2ff3a0098
:1005c000000006009902ba00055d78008b05e9007d
:1005d000f7ff3200c82ade00055d78008b05e900d0
:1005e000f3ff32000c00e000f1ff320019ddba0029
:1005f000eeff3700809fbe000000fa000108a9004e
:1006000021718000004020000080600000f0a70001
:100610000000ea000000e9004f00de000040780022
:100620000080fb00610060004a00dd002171800055
:1006300001a0a10001007000207188000080fa0074
:100640004f00be00004006003600f800809fbe004c
:10065000829fbe00849fbe00869fbe000000fa00fd
:100660000368a90020808000318080006100400084
:10067000e0804800208088003180880099020700cf
:100680000080fa004f03be004f02be004f01be00c3
:100690004f00be003600f900004006003600f800aa
:1006a000809fbe00829fbe00849fbe00869fbe00ca
:1006b0000000fa000068a900c90507002a07070022
:1006c0000080fa004f03be004f02be004f01be0083
:1006d0004f00be003600f90000400600801f780081
:1006e0000000fa0001a8a90000188000008288001c
:1006f0001018800010828800201880002082880056
:1007000030188000308288004018800040828800c5
:1007100010c0b30019f0b7000080fa004f00780055
:10072000004006000040da000000fe000000050066
:1007300003f0a200889fbe008a9fbe008c1f780035
:10074000180107001f0133006450e1004f00320020
:100750006420e1005200320003826c0007003b007d
:100760000905d0000306d000820f54000c065d007e
:100770000200390002003200890178000306780087
:100780008582550004003d000003fd008103fd004b
:100790008502ea008b854200840f720002003b0054
:1007a00060001000e08018006011b8000005eb0048
:1007b0007a28e1000a00390006007800c75ddd00f4
:1007c000f707b200878075002d0037008281710025
:1007d0000a017800610560008180d1000080d300ab
:1007e0008502e900f9ff3b000604400087844800c9
:1007f00002003b0060041400e0841c000988a30090
:10080000070032008a8171008281710061016400f9
:100810008904d1000884d3008b05e8001700370055
:100820000978a30013003a000b00e0001300340025
:100830008b05e9000804440089844c000a447400d4
:100840000978a3000d003a000b00e0000700340017
:100850008b05e9000804440089844c0001003a003b
:100860000b0020000978a300f7ff32000001eb0025
:1008700002003700828171000a0178008e000700b3
:100880000cf0a70001f0a000d70037006420e100c1
:1008900002003a00838f6c00d70033000801be00cd
:1008a0000200be00d0003700889fbe008a9fbe00b5
:1008b0008c1f7800bb000700c200330003866c0069
:1008c0006450e1002e0032006420e1003300320069
:1008d0006150e1002f0032006120e1003100320060
:1008e00085855500eb07b0000900200008042000b2
:1008f000050037000804440089844c000a003100d8
:100900000603430087834b000001530081815b0095
:10091000f8ff33000203be000800a00008044400f2
:1009200089844c00f6ff3900c639dd00830173006d
:1009300001003200130020008904d1000884d30094
:100940000998a300050032000800a7000300a000da
:100950008904d1000884d3008b05e8008904d10004
:100960000884d3000001eb000281d200520007008e
:1009700001f0a1000cf0a70001f0a0009a003700e0
:100980006420e1009c0032000801be000200be00ad
:10099000f7ff37006120e100970032006000b800e7
:1009a000f3ff37000000200001f82700f0ff3700b8
:1009b00014002000c7003700f4ff2f00c5003700e7
:1009c0000001be00620007000470a70003f0a10050
:1009d0006509b100160032000d0035006828e100fd
:1009e00006003500f0ff2f00f1ff27000300e000b4
:1009f00013003b000100280000000500000040003b
:100a0000818048008502e900fcff3a0008003700b9
:100a1000f88f420002003c008000eb00000005005f
:100a20008100d1000080d3008502e800fcff3a007d
:100a30000300e00002003b0060001000e0801800ae
:100a4000000006000001be00410007000470a7007e
:100a500003f0a10003f8a30013003a006509b100f8
:100a600010003200090035006928e100020035005d
:100a700001002800000005000000400081804800bf
:100a80008502e900fcff3a0000000600f88f4200f2
:100a9000050035008100d1000080d3008502e80008
:100aa000fcff3a00000006008000eb00000005009b
:100ab0006011b800a200370081002000618055005d
:100ac0000b003d000b00200061fe2f000100e10043
:100ad0001d00340082817100610164008904d1002d
:100ae0000884d3000000e800faff3a0071002000fb
:100af0006100640003007000020060000900320021
:100b000061044400e0844c000988a500050032001f
:100b10008b05e8006808e10002003a008904d10072
:100b20000884d300f20f20000258e10005003d00c8
:100b3000c75ddd00f907b200898075000800780004
:100b4000000006000bf827008b007800000005006d
:100b5000c70ade00f107b200f50fb200080032004c
:100b6000e1cf4200020032000170a0002400050025
:100b7000810f7000010032000408050044000500e8
:100b8000810f700002003a00140005008502e900a0
:100b90000000400081c04800fcff3b000170a00045
:100ba000240005000004be00e9ff07000003be00aa
:100bb0000405be000200be00e5ff0700844f75007b
:100bc000000006000200be006450e100050036008f
:100bd0006420e100020036000968a30001003a0029
:100be0000800be000160a0004f0678004f05be005f
:100bf0004f04be0000000600f0ff2f00f1ff2700a9
:100c0000f9ff3700889fbe008a9fbe008c1f7800c6
:100c1000e4ff0700ebff330003866c006450e10043
:100c2000240032006420e100270032006150e1001e
:100c3000220032006120e100210032008b85420059
:100c4000eb07b1000134b800003ab80008044200d4
:100c500089844a00013ab8000030b800888040001a
:100c600009014a0004003300000040008180480070
:100c7000020149008b05e900c909dd00830170000c
:100c80000100320013002000c814de004814dd000b
:100c90004709de001200b200c808de0008847000b8
:100ca00085ff070001f0a1000cf0a70001f0a000f3
:100cb000cdff37006120e100cfff32000801be0008
:100cc0000200be00f7ff37006150e100fcff3a0070
:100cd000c9ff3700889fbe008a9fbe00841f78002e
:100ce000b0ff07004f00780011003300f0ff2f0025
:100cf000838f6c0006003b00040565000a00a70016
:100d00000800370009f0a600100020000800370096
:100d1000820f5400838f5c00030039001000200014
:100d200001003e000000200009f0a7000000ea00da
:100d30004f05be004f04be000000e00000000600aa
:100d4000889fbe008a9fbe0000827000040271006e
:100d500004827100260032000004be000200be00c2
:100d60006011b8006b092000950220000182cf00bd
:100d70000a0039000541b1000082cf0007003900a8
:100d80000541b1000982cf00040039000541b100de
:100d90000882cf00010039000541b1000542520030
:100da000120032000a003b00828171006101640080
:100db0008100d1000080d3008984d3000884d3004f
:100dc0008b05e8000442e800f7ff3a00070037000f
:100dd0000804440089844c000000480081804800d9
:100de0008b05e9000442e900f9ff3a0032ff0700f1
:0c0df0004f05be004f04be0000000600ce
:020000040000fa
:100dfc000600fa00881f78006805070092050700b6
:100e0c00c1020700d9020700e3020700d50307005f
:100e1c0018050700590507000004e00083003200a4
:100e2c005a05070051050700000f78009e00780056
:100e3c0068804000100078008000eb0019ff07006c
:100e4c0032332300330524006bff0700020020001f
:100e5c000358240091fe0700d2cc2c00c3042400bc
:100e6c0065ff070010079800210798001e019000ed
:100e7c00ae019000000020008120240087fe0700b6
:100e8c0002002000030a240026fe0700608188006f
:100e9c00718188009e00780064804000100078000a
:100eac008000eb00fffe07003233230033052400e3
:100ebc0051ff0700020020000358240077fe0700b2
:100ecc00d2cc2c00c30424004bff07001007980061
:100edc00210798001e019000ae0190000000200038
:100eec00812024006dfe070002002000030a24006c
:100efc000cfe0700a0818800b18188001e80e800ec
:100f0c00100078008000eb00e6fe0700323323006f
:100f1c003305240038ff070002002000035824008a
:100f2c005efe0700d2cc2c00c304240032ff070065
:100f3c0010079800210798001e019000ae01900048
:100f4c00000020008120240054fe07000200200035
:100f5c00030a2400f3fd070080818800918188003a
:100f6c009e00780066804000100078008000eb0046
:100f7c00ccfe070032332300330524001eff07008c
:100f8c00020020000358240044fe0700d2cc2c00a1
:100f9c00c304240018ff07001007980021079800cd
:100fac001e019000ae019000000020008120240062
:100fbc003afe070002002000030a2400d9fd0700b6
:100fcc00e0818800f18188001e0078001000780014
:100fdc008000eb00b3fe07003233230033052400fe
:100fec0005ff070002002000035824002bfe070019
:100ffc00d2cc2c00c3042400fffe0700100798007d
:10100c00210798001e019000ae0190000000200006
:10101c008120240021fe070002002000030a240086
:10102c00c0fd0700c0818800d181880080818000cc
:10103c009181800018c0b30002002000031f24001f
:10104c0058fe07000000e000010035000044eb00f2
:10105c000804e00002003200254ea8000100370011
:10106c00254ea900a0818000b181800018c0b3007a
:10107c0002002000031f24004afe07000000e000cd
:10108c00010035000044eb000804e00002003200cf
:10109c0064eea8000100370064eea90060818000b6
:1010ac007181800018c0b30002002000031f2400cf
:1010bc003cfe07000000e000010035000044eb009e
:1010cc000804e0000200320064cea80051ff370093
:1010dc0064cea9004fff37000000fa0012d0bf0009
:1010ec000080fb00cf80de00d20120000300200036
:1010fc00820f5000838f58007f003e0000060100d5
:10110c001d003700260037002f003700390037004c
:10111c003a00370043003700440037004d003700d9
:10112c004e00370058003700590037006300370075
:10113c0071003700700037006f0037006e00370009
:10114c006d0037006c0037006b0037006a00370009
:10115c006900370068003700670037006600370009
:10116c006500370064003700630037006200370009
:10117c00540037005e0037000430ef000630ef00fb
:10118c00c2c2b3006000b800c504070012c2b300ad
:10119c006000b800c204070010c0b30012f0b70022
:1011ac002280800033808000803e200001002000df
:1011bc00800f5100818f59005200360020c0b300bf
:1011cc0012f0b70050003700c2c2b300000020007c
:1011dc00811c2400b204070012c2b30000002000de
:1011ec00811c2400ae04070030c0b30012f0b7001d
:1011fc00450037004600070043003700c2c2b30069
:10120c0000002000811c2400a504070012c2b300ba
:10121c006000b800a204070050c0b30012f0b70081
:10122c00390037003a00070037003700c2c2b3005c
:10123c006000b8009a04070012c2b300000020003e
:10124c00811c24009604070070c0b30012f0b70094
:10125c002d0037002e0007002b003700c2c2b30050
:10126c0000002000011a2c008d04070012c2b300ec
:10127c0000002000011a24008904070090c0b3006c
:10128c0012f0b70020003700210007001e003700c5
:10129c00c2c2b30000002000011a24008004070021
:1012ac0012c2b30000002000011a2c007c040700bd
:1012bc00b0c0b30012f0b7001300370014000700e1
:1012cc0011003700c2c2b3000000200001122c0034
:1012dc007304070012c2b3000000200001122c009e
:1012ec006f040700d0c1b30012f0b700060037003e
:1012fc0007000700040037001270ef000000000028
:10130c0001003700000000000080fa000000060019
:10131c000200fa00881f78000040eb00004f7800b4
:10132c00608180007181800018c0b3000200200031
:10133c00432324009bfd07000000e0000100350062
:10134c000044eb000804e00019003200a08180008a
:10135c00b181800018c0b30002002000031f2400dc
:10136c0092fd07000000e00001003c000044eb008f
:10137c000804e0000e003200808180009181800022
:10138c0018c0b300020020004323240087fd07008f
:10139c000000e00001003c000044eb000804e00009
:1013ac000300320010c0b300004f7800ed0037008e
:1013bc00608180007181800018c0b30002002000a1
:1013cc004323240079fd07000000e00001003c00ed
:1013dc000044eb000804e00019003200a0818000fa
:1013ec00b181800018c0b30002002000031f24004c
:1013fc006efd07000000e00001003c000044eb0023
:10140c000804e0000e003200808180009181800091
:10141c0018c0b300020020004323240061fd070024
:10142c000000e000010035000044eb000804e0007f
:10143c000300320020c0b300004f7800c900370011
:10144c00608180007181800018c0b3000200200010
:10145c004323240053fd07000000e0000100350089
:10146c000044eb000804e0000e0032008081800094
:10147c009181800018c0b300020020004323240097
:10148c004afd07000000e00001003c000044eb00b6
:10149c000804e0000300320010c0b300004f7800d5
:1014ac00b0003700608180007181800018c0b300eb
:1014bc0002002000432324003cfd07000000e00054
:1014cc0001003c000044eb000804e0000e00320078
:1014dc00808180009181800018c0b3000200200040
:1014ec00432324002ffd07000000e000010035001d
:1014fc000044eb000804e0000300320020c0b300fd
:10150c00004f780097003700c0818000d1818000a7
:10151c0018c0b30002002000031f240021fd0700a7
:10152c000000e000010035000044eb000804e0007e
:10153c000e003200e0818000f181800018c0b30001
:10154c0002002000c320240018fd07000000e0006a
:10155c0001003c000044eb000804e00003003200f2
:10156c0020c0b300004f78007e003700e08180007f
:10157c00f181800018c0b30002002000031f24007a
:10158c0008fd07000000e000010035000044eb00fe
:10159c000804e0000e003200c0818000d181800080
:1015ac0018c0b30002002000c3202400fffc070079
:1015bc000000e00001003c000044eb000804e000e7
:1015cc000300320010c0b300004f780065003700f4
:1015dc00a0818000b1818000a0818000b181800059
:1015ec0018c0b3000200200003192400edfc070012
:1015fc000000e000010035000044eb000804e000ae
:10160c000300320030c0b300004f780055003700a3
:10161c00608180007181800018c0b300020020003e
:10162c0003222400e1fc07000000e00001003c0064
:10163c000044eb000804e00019003200a081800097
:10164c00b181800018c0b30002002000c320240028
:10165c00d6fc07000000e00001003c000044eb0059
:10166c000804e0000e00320080818000918180002f
:10167c0018c0b3000200200003222400cbfc07009a
:10168c000000e00001003c000044eb000804e00016
:10169c00030032000040eb00004f780031003700af
:1016ac00c0818000d181800018c0b30002002000ee
:1016bc00031b2400bbfc07000000e0000100350008
:1016cc000044eb000804e0000e003200e0818000d2
:1016dc00f181800018c0b30002002000031b24001d
:1016ec00b0fc07000000e000010035000044eb00f6
:1016fc000804e0000300320090c0b300004f7800f3
:10170c0018003700608180007181800018c0b30020
:10171c0002002000031b2400a2fc07000000e000d4
:10172c00010035000044eb000804e0000d0032001d
:10173c00808180009181800018c0b30002002000dd
:10174c00031b240097fc07000000e000010035009b
:10175c000044eb000804e0000200320090c0b3002b
:10176c00004f78001e4078000004e00003003a00af
:10177c0020c0b30013f0b700570037001e407800ac
:10178c00e24f500003003a0040c0b30013f0b70022
:10179c00510037001e407800e14f500003003a0022
:1017ac0060c0b30013f0b7004b0037001e40780048
:1017bc00e34f500010003a00648180007581800076
:1017cc00808180009181800018c0b3000001be00b0
:1017dc000400be0073fc07000000e00001003500af
:1017ec000044eb000804e0000300320080c0b300aa
:1017fc0013f0b700380037001e407800e34f50005c
:10180c0010003a0064818000758180008081800026
:10181c009181800018c0b3000001be000400be001e
:10182c0062fc07000000e00001003c000044eb00fb
:10183c000804e00003003200a0c0b30013f0b700ae
:10184c00250037001e407800e94f500010003a0088
:10185c00648180007581800080818000918180008e
:10186c0018c0b3000001be000400be004ffc07000e
:10187c000000e00001003c000044eb000804e00024
:10188c0003003200a0c0b30013f0b7001200370001
:10189c001e407800e94f50000f003a006481800030
:1018ac0075818000808180009181800018c0b30018
:1018bc000001be000400be003afc07000000e0007e
:1018cc00010035000044eb000804e0000200320087
:1018dc0080c0b30013f0b70013d0bf008080fb00b2
:1018ec0012d0bf000080fb000000e900808f500088
:1018fc000200320013d0bf0012f0b7004f04780082
:10190c000080fa00000006000000fa0013e1a900b4
:10191c0011e1a9001061a8001021a9008108800024
:10192c00f0fc2f0000806000800888000a21ef0086
:10193c000621ef00b0be20007008880000202c00ab
:10194c00600888002142800080ff2f00008060002a
:10195c000000a000204288000108a9002108a8006e
:10196c0011e1a8000080fa00000006000000fa0057
:10197c0005e1a9000421a9000068a9002068a800bd
:10198c0005e1a80000002400c15924000d00070047
:10199c000080fa00000006000000fa001fe1a90018
:1019ac001e21a9000368a9002368a8001fe1a80054
:1019bc0000002000a1472400760007000080fa00f8
:1019cc00000006000400fa00881f7800008fbe009b
:1019dc0021088000f0fc2f000080600020088800a7
:1019ec001e0178009e0190000068290081c124002e
:1019fc00aafb070018c0b30002f02f00f3772400f5
:101a0c00eafb07000000e00001003c000044eb0092
:101a1c000804e0005400320021088000f0fc2f0084
:101a2c00008060000040a000200888001e017800a3
:101a3c009e0190000068290081c1240097fb0700db
:101a4c00020020000310240094fb070018c0b30010
:101a5c0002f02f00f3772400d4fb07000000e00015
:101a6c0001003c000044eb000804e00032003200ae
:101a7c0021088000f0fc2f00008060000050a000c6
:101a8c00200888001e0178009e0190000068290043
:101a9c0081c1240081fb07000200200003282400e0
:101aac007efb070018c0b30002f02f00f377240070
:101abc00befb07000000e00001003c000044eb000e
:101acc000804e00010003200210880000003200010
:101adc0001007000200888001e0178009e01900013
:101aec000068290081c124006cfb07000200200063
:101afc000338240069fb0700aefb070000007800e8
:101b0c0010088800200037001e0178009e0190000c
:101b1c000068290081c1240060fb0700020020003e
:101b2c00032824005dfb0700a2fb070000007800df
:101b3c0010088800140037001e0178009e019000e8
:101b4c000068290081c1240054fb0700020020001a
:101b5c000310240051fb070096fb070000007800df
:101b6c0010088800080037001e0178009e019000c4
:101b7c000068290081c1240048fb07008dfb070089
:101b8c0000007800100888004f0478000080fa00ec
:101b9c00000006000400fa00881f7800008fbe00c9
:101bac00f1088000f0fc2f0000806000f008880035
:101bbc001e0178009e0190000068290081c124005c
:101bcc0036fb070018c0b30002f02f00f377240097
:101bdc0076fb07000000e00001003c000044eb0035
:101bec000804e00054003200f1088000f0fc2f00e3
:101bfc00008060000040a000f00888001e01780002
:101c0c009e0190000068290081c1240023fb07007d
:101c1c00020020000310240020fb070018c0b300b2
:101c2c0002f02f00f377240060fb07000000e000b7
:101c3c0001003c000044eb000804e00032003200dc
:101c4c00f1088000f0fc2f00008060000050a00024
:101c5c00f00888001e0178009e01900000682900a1
:101c6c0081c124000dfb0700020020000328240082
:101c7c000afb070018c0b30002f02f00f377240012
:101c8c004afb07000000e00001003c000044eb00b0
:101c9c000804e00010003200f1088000000320006e
:101cac0001007000f00888001e0178009e01900071
:101cbc000068290081c12400f8fa07000200200006
:101ccc0003382400f5fa07003afb070000007800ff
:101cdc0010088800200037001e0178009e0190003b
:101cec000068290081c12400ecfa070002002000e2
:101cfc0003282400e9fa07002efb070000007800f7
:101d0c0010088800140037001e0178009e01900016
:101d1c000068290081c12400e0fa070002002000bd
:101d2c0003102400ddfa070022fb070000007800f6
:101d3c0010088800080037001e0178009e019000f2
:101d4c000068290081c12400d4fa070019fb0700a0
:101d5c0000007800100888004f0478000080fa001a
:101d6c00000006000000fa001160800080ff2f00c8
:101d7c00008060001060880000fa2000206088005d
:101d8c0023aca800238ca80011618000f03f2f0029
:101d9c000080600000a0a0001061880030002000ce
:101dac0020618800c3aca800c38ca8001166800019
:101dbc00f03f2f000080600000a0a000106688009b
:101dcc00300020002066880001eca8000080fa009a
:101ddc00000006000000fa00889fbe0044818000cd
:101dec0055818000208180003181800018c0b300b3
:101dfc000001be000400be00eafa07000000e0008b
:101e0c00010035000044eb000804e0000d00320036
:101e1c0028818000398180004481800055818000b8
:101e2c00a0808000b18080000001be000400be00d4
:101e3c003dfa07000801be00b5000700408188008c
:101e4c005181880044818000558180002081800070
:101e5c003181800018c0b3000001be000400be0038
:101e6c00d2fa07000000e00001003c000044eb0047
:101e7c000804e0000d0032002881800039818000c8
:101e8c004481800055818000a0808000b18080005a
:101e9c000001be000400be0022fa07000801be00cb
:101eac0083000700408188005181880040818000b8
:101ebc005181800018c0b3006011b800bbfa070054
:101ecc000000e00001003c000044eb000804e000ce
:101edc0004003200c3eca90024cea800c3cca80097
:101eec0003003700c3cca90024eea800c3eca80063
:101efc0040818000518180005700070002002000c3
:101f0c00032224003cfb0700cbfa070000007800fa
:101f1c00306688000481800015818000e08080009c
:101f2c00f180800018c0b3000001be000400be00a8
:101f3c009cfa07000000e000010035000044eb00b3
:101f4c000804e0000d003200e8808000f980800079
:101f5c000481800015818000a0808000b180800009
:101f6c000001be000400be00eff907000801be002e
:101f7c0067000700008188001181880004818000bf
:101f8c0015818000e0808000f180800018c0b300d3
:101f9c000001be000400be0084fa07000000e0004f
:101fac0001003c000044eb000804e0000d0032008e
:101fbc00e8808000f9808000048180001581800019
:101fcc00a0808000b18080000001be000400be0033
:101fdc00d4f907000801be00350007000081880015
:101fec0011818800008180001181800018c0b3002d
:101ffc006011b8006dfa07000000e00001003c0021
:10200c000044eb000804e0000400320023cca900db
:10201c0015eea80023eca8000300370023eca90060
:10202c0015cea80023cca80000818000118180006f
:10203c00090007000200200003222400eefa07002a
:10204c007dfa070000007800306188004f04be0064
:10205c000080fa00000006000400fa00881f7800d7
:10206c00008fbe0018c0b3006011b8001e007800cd
:10207c009e0090004dfa07000000e00001003d00ba
:10208c000044eb000804e000030032001e0078005e
:10209c009e009000030037001e0078009e00900008
:1020ac0001f0a2004f0478000080fa000000060046
:1020bc000800fa00881f7800008fbe0022079800e5
:1020cc003307980018c0b3002e019000be01900099
:1020dc001e0078009e00900034fa07000000e0001b
:1020ec0001003c000044eb000804e0000300320057
:1020fc001e0078009e009000020037002e00900019
:10210c00be0090004f0478000080fa00000006002a
:10211c000800fa00881f7800008fbe002207980084
:10212c003307980018c0b3002e019000be01900038
:10213c001e0078009e0090001afa07000000e000d4
:10214c00010035000044eb000804e00003003200fd
:10215c001e0078009e009000020037002e009000b8
:10216c00be0090004f0478000080fa0000000600ca
:10217c000c00fa00881f7800008fbe002207980020
:10218c0033079800440798005507980018c0b3000f
:10219c004e019000de0190001e0078009e00900021
:1021ac0002fa07000000e00001003c000044eb00d4
:1021bc000804e000040032004e019000de019000a3
:1021cc00028fbe000e00370018c0b3002e01900025
:1021dc00be0190001e0078009e009000f1f90700ef
:1021ec000000e000010035000044eb000804e000b2
:1021fc00030032002e019000be019000028fbe0041
:10220c001e0078009e0090004f0478000080fa00b9
:10221c00000006000400fa00008fbe00b2fd200092
:10222c00930424001e0078009e0090009bf9070088
:10223c0002002000433324006ffa07000080fa00ec
:10224c00000006000400fa00008fbe00b2fd200062
:10225c00930424001e0078009e00900066fa07008c
:10226c0002002000433324008cf907000080fa00a0
:10227c00000006000000fa0021e3a9002143a80099
:10228c0001198000f0cf2f00008060000019880039
:10229c002043a90001198000000e200001007000ed
:1022ac000019880011198000f0ff210000806000e7
:1022bc00101988002343a80011198000f0cf2f00bb
:1022cc0000806000101988001119800030f82f0070
:1022dc00008060000040a000101988002203a900b3
:1022ec002223a90025e3a900f0c0b30024e3b70022
:1022fc0021198000f00f2e008080600000f020007b
:10230c0001007000201988003303a9002e0ea800cc
:10231c002f6ea8006f2ea8001e2ea8004feea8004e
:10232c0030c3a8003163a8002e03a8003063a800b6
:10233c0031e3a8004119800000fc2f0000806000f0
:10234c004019880028e3a90001a8a90021a8a80029
:10235c0021e3a8000080fa00000006000000fa004b
:10236c002023a8000080fa00000006000000fa00fc
:10237c00000421000080fa00000006000000fa00b2
:10238c0019d0bf000080fa00000006000000fa001f
:10239c001970ef000080fa00000006000000fa003f
:1023ac00f0032000303a8800213a8000f0f32f002f
:1023bc0000806000203a8800213a800000fe2f0047
:1023cc00008060000000a000203a8800120020006d
:1023dc0080072000a1092000337420008049780078
:1023ec008149780082497800103a80000001780019
:1023fc000200a0006004200071052000237420005e
:10240c0080497800814978008249780000000000fa
:10241c00113a80000000270080806000000021003d
:10242c00808f5000faff3a0000000000113a800043
:10243c0000022000008060000000e000fbff320082
:10244c000080fa00000006000000fa000e2eef00db
:10245c001e2eef002e2eef003e2eef004e2eef0024
:10246c005e2eef006e2eef00214ea90060cea9006b
:10247c0060eea90011cea90011eea90020eea90072
:10248c0020cea900612ea800200ea800216ea80065
:10249c0041eea800102ea8000080fa0000000600f3
:1024ac000600fa00008fbe0042479800ce40900014
:1024bc00c0c2b30080cf500004003a001e01780067
:1024cc009e0190002281880033818800ce409000cc
:1024dc0010c2b30080cf500004003a001e017800f7
:1024ec009e019000e2808800f38088000080fa0052
:0424fc0000000600d6
:020000040000fa
:102500000c10000008000000800000000010000017
:102510000c000000800000001a10000026000000df
:102520008000000014100000040000008200000081
:10253000cdcccc003e000000401000000a0000009e
:102540008000000018100000020000008000000061
:042550000000000087
:020000040000fa
:02000004000af0
:04afe000cfff00009f
:020000040000fa
:02000004000af0
:04afe400ffff00006b
:020000040000fa
:02000004000af0
:04afe8007fff0000e7
:020000040000fa
:02000004000af0
:04afec005fff000003
:020000040000fa
:02000004000af0
:04aff00038ff000026
:020000040000fa
:02000004000af0
:04aff400ffffff005c
:00000001FF
